:100000000C9458000C9480000C9480000C94800098
:100010000C9480000C9480000C9480000C94800060
:100020000C9480000C9480000C9480000C94800050
:100030000C9480000C9480000C9480000C94800040
:100040000C94CC030C9480000C9480000C948000E1
:100050000C9480000C9480000C9480000C94800020
:100060000C9416040C948000000000002500280069
:100070002B00040404040404040402020202020229
:10008000030303030303010204081020408001025C
:1000900004081020010204081020000000080002DB
:1000A0000100000304070000000000000000350507
:1000B00011241FBECFEFD8E0DEBFCDBF11E0A0E01E
:1000C000B1E0ECEBFCE002C005900D92AC33B1075F
:1000D000D9F722E0ACE3B1E001C01D92A731B2072D
:1000E000E1F710E0C8E5D0E004C02197FE010E94CE
:1000F0005606C735D107C9F70E9455050C945C0612
:100100000C94000008950895AF92BF92CF92DF92B1
:10011000EF92FF920F931F93CF93DF936C017B01BC
:100120008B01040F151FEB015E01AE18BF08C0174D
:10013000D10759F06991D601ED91FC910190F081C0
:10014000E02DC6010995892B79F7C501DF91CF9183
:100150001F910F91FF90EF90DF90CF90BF90AF90E5
:10016000089590E0FC01E656FF4F2491FC01EA5708
:10017000FF4F3491FC01EE58FF4FE491EE23C9F09C
:10018000222339F0233001F1A8F4213019F1223073
:1001900029F1F0E0EE0FFF1FE859FF4FA591B49150
:1001A0008FB7F894EC91611126C030953E233C93B3
:1001B0008FBF08952730A9F02830C9F0243049F7BF
:1001C000809180008F7D03C0809180008F77809325
:1001D0008000DFCF84B58F7784BDDBCF84B58F7D82
:1001E000FBCF8091B0008F778093B000D2CF809109
:1001F000B0008F7DF9CF3E2BDACF3FB7F8948091D6
:10020000F3019091F401A091F501B091F60126B5AA
:10021000A89B05C02F3F19F00196A11DB11D3FBF3E
:10022000BA2FA92F982F8827BC01CD01620F711D0D
:10023000811D911D42E0660F771F881F991F4A9507
:10024000D1F708958F929F92AF92BF92CF92DF9293
:10025000EF92FF924B015C010E94FD006B017C015B
:100260000E94FD006C197D098E099F09683E73404C
:1002700081059105A8F321E0821A9108A108B1082F
:1002800088EEC80E83E0D81EE11CF11C8114910495
:10029000A104B10429F7FF90EF90DF90CF90BF90B9
:1002A000AF909F908F900895089520917D01260F23
:1002B0003327331F21323105ECF42091C601FC01B4
:1002C00090E080E0243069F082E00895A0917D0103
:1002D0002191AC01435A5E4FA40FB52FB11D2C9351
:1002E0000196861798F380917D01680F60937D01D8
:1002F00080E0089581E008951092C60181E0809326
:10030000C5011092A00161E082E10E94B10061E0AC
:1003100083E10E94B100E9EBF0E080818E7F808371
:1003200080818D7F808388E48093B80085E480930A
:10033000BC000895CF93DF9391E090935C018823F4
:10034000B9F0C091B800D091BA008091BC008A7B0E
:100350008093BC0060E082E10E94B10060E083E134
:100360000E94B1000E947C01D093BA00C093B800F3
:10037000DF91CF9108950895E091FE018091FD01F4
:10038000E81730F4F0E0E45CFE4F808190E00895DF
:100390008FEF9FEF08959091FE018091FD012FEF67
:1003A0003FEF981748F4E92FF0E0E45CFE4F20811E
:1003B00030E09F5F9093FE01C90108958091FD0197
:1003C0009091FE01891B990B0895CF92DF92EF92D5
:1003D000FF920F931F93CF93DF937C01CB018A0190
:1003E0002091CC01222389F0EB016B01C40ED51EB4
:1003F000CC15DD0569F06991D701ED91FC91019073
:10040000F081E02DC7010995F3CF642F0E945501BB
:10041000C801DF91CF911F910F91FF90EF90DF9076
:10042000CF900895CF93DF931F92CDB7DEB7698346
:100430002091CC012223F9F02091FB01203258F0C9
:1004400021E030E0FC013383228390E080E00F90D4
:10045000DF91CF9108958091FC01E82FF0E0E35304
:10046000FE4F998190838F5F8093FC018093FB0105
:1004700081E090E0ECCF61E0CE0101960E94550151
:10048000F7CFCF92DF92EF92FF920F931F93CF930C
:10049000DF93FC01C48121E02093CC01C093ED01E6
:1004A0001092FC011092FB018385682B8FEF91E085
:1004B0000E941202D091FB01D13208F092C00E943A
:1004C000FD006B017C018091C601811165C082E055
:1004D0008093C60181E08093C5018FEF8093C401B2
:1004E0001092C301D093C201ADECB1E0E2EAF1E0B9
:1004F00080E0D81385C01092A1018091A101CC0F9A
:10050000C82BC093A1018091A001813009F07CC06B
:100510001092A0010E94FD006B017C018091A1015D
:100520008093BB008091C8019091C901A091CA013C
:10053000B091CB01892B8A2B8B2B99F00E94FD0067
:100540000091C8011091C9012091CA013091CB01DD
:100550006C197D098E099F090617170728073907A7
:10056000E0F18091BC0083FDD9CF85EC8093BC0085
:100570000E94FD006B017C018091C601823009F46C
:1005800045C08091C4018F3F61F18091C4018032E8
:1005900041F18091C40125C08091C8019091C901A9
:1005A000A091CA01B091CB01892B8A2B8B2B09F426
:1005B0008ACF0E94FD000091C8011091C9012091CD
:1005C000CA013091CB016C197D098E099F0906176C
:1005D00017072807390708F076CF8091C7010E94D6
:1005E0009A011092FC011092FB011092CC01DF9154
:1005F000CF911F910F91FF90EF90DF90CF900895D2
:100600009D9191938F5F75CF85EEB0CF8091C8019A
:100610009091C901A091CA01B091CB01892B8A2B7D
:100620008B2B09F4A9CF0E94FD000091C801109105
:10063000C9012091CA013091CB016C197D098E0945
:100640009F09061717072807390708F095CFC5CF68
:1006500090E080E008950F931F93CF938C01C62FF5
:100660000E9441026C2F6460C8010E9441026C2FFD
:100670006B7FC8010E94410283EC90E00197F1F783
:10068000CF911F910F9108950F931F93CF93DF93F5
:100690008C01D62FC42F607F642B0E942B0380E136
:1006A000D89FB00111246C2BC801DF91CF911F910D
:1006B0000F910C942B03CF93DF93CDB7DEB7289720
:1006C0000FB6F894DEBF0FBECDBF98E0E0E0F1E0DA
:1006D000DE01119601900D929A95E1F79091130227
:1006E000961708F46FEF262F30E0220F331F41E0FA
:1006F00050E04C0F5D1F240F351FF9016081680F1A
:10070000606840E08BE092E028960FB6F894DEBF78
:100710000FBECDBFDF91CF910C94440341E00E9406
:10072000440381E090E0089585ED8093BC008091C2
:10073000C8019091C901A091CA01B091CB0107965F
:10074000A11DB11D23E0B695A795979587952A958C
:10075000D1F72091BC0024FD03C01092C60108957A
:100760004091C8015091C9016091CA017091CB01BB
:10077000452B462B472B69F30097A105B10541F0A6
:1007800025E32A95F1F700000197A109B109E1CF0E
:100790008091C7010C949A011F920F920FB60F928D
:1007A00011242F933F938F939F93AF93BF93809187
:1007B000EF019091F001A091F101B091F20130911F
:1007C000EE0123E0230F2D3758F50196A11DB11D31
:1007D0002093EE018093EF019093F001A093F1013B
:1007E000B093F2018091F3019091F401A091F50191
:1007F000B091F6010196A11DB11D8093F301909374
:10080000F401A093F501B093F601BF91AF919F91D0
:100810008F913F912F910F900FBE0F901F901895C1
:1008200026E8230F0296A11DB11DD2CF1F920F9271
:100830000FB60F9211242F933F934F935F936F93B3
:100840007F938F939F93AF93BF93EF93FF93809189
:10085000B900887F803609F44AC0F0F5883209F47F
:10086000A7C018F5803109F49BC0B8F4882309F4B7
:10087000F9C0883009F494C0FF91EF91BF91AF9116
:100880009F918F917F916F915F914F913F912F91A8
:100890000F900FBE0F901F901895883109F488C0F3
:1008A000803251F78093C40114C0803409F49DC094
:1008B00040F48033B9F38833F9F68093C40185ECB2
:1008C000B0C0803509F485C0883509F496C08834F5
:1008D00099F60E949403D0CF883909F48CC038F57A
:1008E000883729F050F4883611F0803729F683E0F4
:1008F0008093C60110929F0157C0883809F47BC0CD
:10090000803919F0803809F0B7CF80919F0180328B
:1009100008F071C0E0919F0181E08E0F80939F01EC
:100920008091BB00F0E0E158FE4F80833DC0803BEA
:1009300039F0E0F4803A09F479C0883A09F09CCFA4
:1009400084E08093C60110927E0110927D01E091B7
:10095000F901F091FA01099580917D0181110FC093
:1009600081E080937D0110925D0109C0803C09F413
:10097000A6CF883C09F4A3CF883B09F07DCFE09156
:100980007E0181E08E0F80937E01F0E0E35AFE4FFE
:1009900080818093BB0090917E0180917D0129C070
:1009A0008091A1018093BB0085EC8093BC0064CF53
:1009B0009091C3018091C201981758F5E091C3014D
:1009C00081E08E0F8093C301F0E0EE55FE4F8081F1
:1009D000E9CFE091C30181E08E0F8093C301809144
:1009E000BB00F0E0EE55FE4F80839091C3018091F3
:1009F000C2019817C8F285E8D8CFE091C30181E021
:100A00008E0F8093C3018091BB00F0E0EE55FE4F46
:100A100080838091C50181115CCF81E08093A0012A
:100A200084EA8093BC001092C60126CF85EC8093A7
:100A3000BC001092C60180919F01803230F4E09199
:100A40009F01F0E0E158FE4F108260919F0170E03D
:100A5000E091F701F091F8018FE791E0099510928C
:100A60009F010ACF1092C40134CFEFEFF1E013825F
:100A7000128288EE93E0A0E0B0E084839583A683A1
:100A8000B7838CE091E091838083EBE0F2E0138206
:100A900012828EE191E09183808387E2848380E1FA
:100AA000818782E0828713860895789484B5826076
:100AB00084BD84B5816084BD85B5826085BD85B502
:100AC000816085BD80916E00816080936E00109280
:100AD00081008091810082608093810080918100FB
:100AE000816080938100809180008160809380008C
:100AF0008091B10084608093B1008091B0008160EA
:100B00008093B00080917A00846080937A00809115
:100B10007A00826080937A0080917A00816080936D
:100B20007A0080917A00806880937A001092C100E8
:100B30001092FE011092FD011092FC011092FB0137
:100B40000E947C0182E890E09093FA018093F90181
:100B500083E890E09093F8018093F70110921002DF
:100B600080911502823018F098E0909310028093E3
:100B7000130262E370E080E090E00E942201609145
:100B800016028BE092E00E94410268EE73E080E082
:100B900090E00E94220160E38BE092E00E942B0330
:100BA000CBE4D6E4CE010197F1F760E38BE092E06D
:100BB0000E942B032197F1F760E38BE092E00E9403
:100BC0002B0383E592E00197F1F760E28BE092E07E
:100BD0000E942B0360911002606240E08BE092E083
:100BE0000E94440384E08093110240E06CE08BE0BB
:100BF00092E00E94440340E061E08BE092E00E94BA
:100C00004403CBE3DFE1CE010197F1F782E080936B
:100C1000120240E066E08BE092E00E94440340E074
:100C200062E08BE092E00E944403CE010197F1F76D
:100C300088E08093160260E08BE092E00E9441021F
:100C400040E061E08BE092E00E944403CE01019716
:100C5000F1F740E062E08BE092E00E9444032197CC
:100C6000F1F760E080E00E945B034FE050E066E255
:100C700071E08BE092E00E94840061E083E00E94DA
:100C80005B0345E050E066E371E08BE092E00E9498
:100C9000840068EE73E080E090E00E942201C0E0F2
:100CA000D0E02097F1F30E940000FBCFEE0FFF1F72
:0C0CB0000590F491E02D0994F894FFCF1A
:100CBC000000400014005400000000001202E50186
:100CCC002803BB01DE01CB01BC01000000008E0338
:100CDC00840028035401486F6D65206175746F6D35
:0C0CEC006174696F6E0048656C6C6F00ED
:00000001FF
