:100000000C9462000C948A000C948A000C948A0070
:100010000C948A000C948A000C948A000C948A0038
:100020000C948A000C948A000C948A000C948A0028
:100030000C948A000C948A000C948A000C948A0018
:100040000C94EA060C948A000C94B8060C94920660
:100050000C948A000C948A000C948A000C948A00F8
:100060000C948A000C948A000000000024002700F1
:100070002A0000000000250028002B0000000008D6
:10008000000201000003040700000000000000005F
:1000900000000000230026002900040404040404D6
:1000A0000404020202020202030303030303010227
:1000B00004081020408001020408102001020408F6
:1000C0001020340711241FBECFEFD8E0DEBFCDBF14
:1000D00011E0A0E0B1E0EAE8F9E102C005900D927C
:1000E000A03EB107D9F722E0A0EEB1E001C01D9219
:1000F000AD3BB207E1F710E0C2E6D0E004C02197C3
:10010000FE010E94BD0CC136D107C9F70E949F07AE
:100110000C94C30C0C940000CF92DF92EF92FF92EC
:10012000CF93DF93B0919902A0E08111AB2F809122
:100130009A0290E0880F991FAC0140575F4FC09022
:100140009F02D090A002E090A102F090A20230E0C5
:1001500020E0FA01C591D491E881B90190E080E0F6
:10016000EB23EA130AC02F5F3F4F6C157D058E0508
:100170009F0578F36FEF7FEFCB01DF91CF91FF9079
:10018000EF90DF90CF900895DC01ED91FC9101900C
:10019000F081E02D0994AF92BF92CF92DF92EF925F
:1001A000FF920F931F93CF93DF936C017B018B0121
:1001B000040F151FEB015E01AE18BF08C017D10771
:1001C00059F06991D601ED91FC910190F081E02DFB
:1001D000C6010995892B79F7C501DF91CF911F9150
:1001E0000F91FF90EF90DF90CF90BF90AF90089568
:1001F000FC01538D448D252F30E0842F90E0821B2D
:10020000930B541710F0CF96089501970895FC01B1
:10021000918D828D981761F0A28DAE0FBF2FB11D09
:100220005D968C91928D9F5F9F73928F90E0089561
:100230008FEF9FEF0895FC01918D828D981731F01B
:10024000828DE80FF11D858D90E008958FEF9FEF6F
:100250000895FC01918D228D892F90E0805C9F4F45
:10026000821B91098F739927089585EF91E00E9471
:10027000290121E0892B09F420E0822F089580E0F4
:1002800090E0892B29F00E94350181110C94000027
:100290000895FC01A48DA80FB92FB11DA35ABF4F1B
:1002A0002C91848D90E001968F739927848FA68975
:1002B000B7892C93A089B1898C91837080648C93C9
:1002C000938D848D981306C00288F389E02D808178
:1002D0008F7D80830895EF92FF920F931F93CF93AA
:1002E000DF93EC0181E0888F9B8D8C8D98131AC071
:1002F000E889F989808185FF15C09FB7F894EE8958
:10030000FF896083E889F9898081837080648083B4
:100310009FBF81E090E0DF91CF911F910F91FF90FF
:10032000EF900895F62E0B8D10E00F5F1F4F0F73A7
:100330001127E02E8C8D8E110CC00FB607FCFACF62
:10034000E889F989808185FFF5CFCE010E944901B6
:10035000F1CFEB8DEC0FFD2FF11DE35AFF4FF08233
:100360009FB7F8940B8FEA89FB8980818062CFCF99
:10037000CF93DF93EC01888D8823B9F0AA89BB89DC
:10038000E889F9898C9185FD03C0808186FD0DC0C7
:100390000FB607FCF7CF8C9185FFF2CF808185FFE8
:1003A000EDCFCE010E944901E9CFDF91CF910895B1
:1003B00090E0FC01E458FF4F2491FC01E255FF4F0F
:1003C0003491FC01E656FF4FE491EE23C9F022235D
:1003D00039F0233001F1A8F4213019F1223029F14C
:1003E000F0E0EE0FFF1FEE58FF4FA591B4918FB7CD
:1003F000F894EC91611126C030953E233C938FBF59
:1004000008952730A9F02830C9F0243049F78091A9
:1004100080008F7D03C0809180008F778093800063
:10042000DFCF84B58F7784BDDBCF84B58F7DFBCFE5
:100430008091B0008F778093B000D2CF8091B000D0
:100440008F7DF9CF3E2BDACFCF93DF9390E0FC0185
:10045000E255FF4F249186569F4FFC0184918823DB
:10046000D1F090E0880F991FFC01E859FF4FA5914A
:10047000B491FC01EE58FF4FC591D491623071F4F4
:100480009FB7F8943C91822F809583238C93E881C9
:100490002E2B28839FBFDF91CF9108958FB7F894BB
:1004A000EC912E2B2C938FBFF6CF8E5080648093CF
:1004B0007C0080917A00806480937A0080917A0039
:1004C00086FDFCCF809178009091790008953FB728
:1004D000F8948091E1019091E201A091E301B09143
:1004E000E40126B5A89B05C02F3F19F00196A11D78
:1004F000B11D3FBFBA2FA92F982F8827BC01CD016E
:10050000620F711D811D911D42E0660F771F881FCC
:10051000991F4A95D1F708958F929F92AF92BF92FB
:10052000CF92DF92EF92FF924B015C010E94670233
:100530006B017C010E9467026C197D098E099F097D
:10054000683E734081059105A8F321E0821A910865
:10055000A108B10888EEC80E83E0D81EE11CF11C8A
:1005600081149104A104B10429F7FF90EF90DF906A
:10057000CF90BF90AF909F908F900895CF92DF92D1
:10058000EF92FF920F931F93CF93DF93CDB7DEB718
:10059000C054D1400FB6F894DEBF0FBECDBF2FB709
:1005A000F8948091F1019091F201A091F301B09142
:1005B000F4012FBF40919B0250919C0260919D02DB
:1005C00070919E028C019D01041B150B260B370BAD
:1005D000B901A801403D57406105710590F4809133
:1005E000A302C05CDE4F0FB6F894DEBF0FBECDBFD6
:1005F000DF91CF911F910F91FF90EF90DF90CF90FF
:10060000089580939B0290939C02A0939D02B093C7
:100610009E021092960210929502109294021092ED
:1006200093021092920262E0809197020E9424024B
:1006300061E070E080E090E00E948C0261E08091D7
:1006400097020E94240260E0809197020E94D801E4
:10065000809198028551823020F58BE291E10197DB
:10066000F1F762E0809197020E9424028091A40237
:1006700090E08230910538F0880F991F880F991FFC
:1006800005970197F1F7F89480E00E948C006F3F86
:100690007F4F8F4F9F4F61F41092A302789480E0B8
:1006A000A0CF64E170E080E090E00E948C02D9CF9E
:1006B00081E00E948C006F3F7F4F8F4F9F4F61F30F
:1006C0008E010F5F1F4F6E018FEBC81A8EEFD80A95
:1006D000780180E00E948C00F7016083718382833F
:1006E000938381E00E948C00F70164837583868385
:1006F0009783F8E0EF0EF11CEC14FD0451F77894A9
:1007000030E020E0F801C080D180E280F3804481B5
:10071000558166817781FFEFCF16DF06EF06FF0672
:1007200031F04F3F8FEF58076807780719F41092A0
:10073000A302B5CFF90183E0F595E7958A95E1F736
:10074000EE56FD4F8081880FC416D506E606F706E3
:1007500010F180832F5F3F4F085F1F4F2832310514
:1007600089F6409196022091920280919302280F7F
:100770003327331F80919402280F311D80919502F9
:10078000820F932F911D99274817190681F681E052
:100790008093A30226CF8160DCCF089590E080E0B3
:1007A0000895CF93DF93EC0160E08E810E94D80121
:1007B00061E08E810E94D80160E08E810E94D801A4
:1007C0008BE891E00197F1F7DF91CF910895CF92F7
:1007D000DF92EF92FF920F931F93CF93DF936C0101
:1007E0007C0187E0E80EF11CD0E0C0E0062F10E0AD
:1007F000B8010C2E02C0759567950A94E2F76170F6
:10080000F70181917F010E94D8012196C430D10562
:1008100079F7C601DF91CF911F910F91FF90EF9073
:10082000DF90CF900C94D103CF92DF92EF92FF92A2
:100830000F931F93CF93DF93EC01F62E642F8C81DF
:100840000E94D8018D818F3F19F060E00E94D8018D
:100850000F2D10E08F8584FF25C06E0187E0C80E44
:10086000D11CF12CE12CB8010E2C02C075956795B6
:100870000A94E2F76170F60181916F010E94D8013C
:10088000FFEFEF1AFF0A88E0E816F10461F7CE01E6
:10089000DF91CF911F910F91FF90EF90DF90CF905C
:1008A0000C94D103B80184E0759567958A95E1F7BA
:1008B000CE010E94E7036F2DCE01DF91CF911F91F2
:1008C0000F91FF90EF90DF90CF900C94E70340E002
:1008D000682F85EA92E00C94140481E00E9467047A
:1008E0008BE39FE10197F1F70895CF93DF93823077
:1008F00029F49091B40298609093B4028093B80266
:100900001092B90280E48093BA0280E18093BB0226
:1009100080E58093BC0261E08091A9020E942402DC
:100920008091AA028F3F19F061E00E94240261E0E9
:100930008091AB020E942402C5EAD2E09E01255AB2
:1009400032408091B40284FD0BC084E090E0219697
:100950002817390744F461E08E810E942402EECF0B
:1009600088E090E0F4CF8BE39DE00197F1F760E041
:100970008091A9020E94D80160E08091AB020E94A0
:10098000D8018091AA028F3F19F060E00E94D8013F
:100990008091B40284FD34C063E085EA92E00E9455
:1009A000E703CBE4D6E4CE010197F1F763E085EAF3
:1009B00092E00E94E7032197F1F763E085EA92E075
:1009C0000E94E70383E592E00197F1F762E085EA90
:1009D00092E00E94E7038091B40280620E94670463
:1009E00084E08093B5028CE00E9467040E946D044D
:1009F00082E08093B60286E0DF91CF910C94670489
:100A000080620E9467048BE496E40197F1F780917D
:100A1000B40280620E94670483E592E00197F1F7D7
:100A20008091B40280620E946704D5CFE091B80241
:100A3000E33040F4E150F0E0EB55FD4F84898068ED
:100A40000C946704E2E0F7CF41E00E94140481E0D7
:100A500090E00895FB0101900020E9F73197AF0184
:100A6000461B570BDC01ED91FC910280F381E02DD8
:100A700009948F929F92AF92BF92EF92FF920F9341
:100A80001F93CF93DF93CDB7DEB7A1970FB6F8943E
:100A9000DEBF0FBECDBF7C01FA01CB0119A222300F
:100AA00008F42AE08E010F5D1F4F822E912CB12C8D
:100AB000A12CBF01A50194010E949B0CF901CA0160
:100AC0006A300CF5605DD8016E938D01232B242BC9
:100AD000252B79F790E080E0109721F0BD01C70148
:100AE0000E942A05A1960FB6F894DEBF0FBECDBFB7
:100AF000DF91CF911F910F91FF90EF90BF90AF903A
:100B00009F908F900895695CDECFCF92DF92EF9235
:100B1000FF920F931F93CF93DF93EC016A017B0148
:100B20006DE20E94C4008C0144275527BA014C197C
:100B30005D096E097F092AE0CE010E943905800F08
:100B4000911FDF91CF911F910F91FF90EF90DF9058
:100B5000CF9008952F923F924F925F926F927F9223
:100B60008F929F92AF92BF92CF92DF92EF92FF92BD
:100B70001F93CF93DF93EC016A017B01722EAB01CF
:100B80009601CB01B6010E94960C6EE171E08111D5
:100B900026C046015701E894B7F82FEF3FEF4FE723
:100BA0005FE7C501B4010E94960C81110CC02FEFC4
:100BB0003FEF4FE75FE7C501B4010E94CC0A62E254
:100BC00071E0181664F02FEF3FEF4FE75FE4C701C5
:100BD000B6010E94240C1816B4F466E271E0CE014E
:100BE000DF91CF911F91FF90EF90DF90CF90BF905A
:100BF000AF909F908F907F906F905F904F903F90BD
:100C00002F900C942A052FEF3FEF4FE75FECC701C1
:100C1000B6010E94CC0A87FDE0CF20E030E0A901B8
:100C2000C701B6010E94CC0A312C212C87FF09C0D4
:100C30006DE2CE010E94C4001C01F7FAF094F7F8AF
:100C4000F09410E060E070E080E09FE3711641F006
:100C500020E030E040E251E40E94D10A1F5FF6CF6D
:100C6000A70196010E94600A2B013C010E94430BE0
:100C70004B015C012AE0BC01A401CE010E943905B0
:100C80007C01E20CF31C1123C1F1C501B4010E94E7
:100C9000720B9B01AC01C301B2010E945F0A4B01C0
:100CA0005C016EE2CE010E94C400E80EF91E1150F4
:100CB00020F120E030E040E251E4C501B4010E949F
:100CC000290C2B013C010E94430B4B01B12CA12CA0
:100CD0002AE0B501A401CE010E943905E80EF91EF3
:100CE000C501B4010E94720B9B01AC01C301B201AA
:100CF0000E945F0A4B015C01DACFC701DF91CF91FF
:100D00001F91FF90EF90DF90CF90BF90AF909F909A
:100D10008F907F906F905F904F903F902F900895AD
:100D20000C942A051F920F920FB60F9211242F9345
:100D30003F934F935F936F937F938F939F93AF9363
:100D4000BF93EF93FF9385EF91E00E944901FF91DC
:100D5000EF91BF91AF919F918F917F916F915F9133
:100D60004F913F912F910F900FBE0F901F901895AC
:100D70001F920F920FB60F9211242F938F939F9370
:100D8000EF93FF93E0910502F09106028081E091DC
:100D90000B02F0910C0282FD1BC0908180910E022B
:100DA0008F5F8F7320910F02821741F0E0910E0246
:100DB000F0E0EB50FE4F958F80930E02FF91EF9184
:100DC0009F918F912F910F900FBE0F901F901895AC
:100DD0008081F4CF1F920F920FB60F9211242F93A0
:100DE0003F938F939F93AF93BF938091F101909125
:100DF000F201A091F301B091F4013091E00123E000
:100E0000230F2D3758F50196A11DB11D2093E00148
:100E10008093F1019093F201A093F301B093F40158
:100E20008091E1019091E201A091E301B091E40190
:100E30000196A11DB11D8093E1019093E201A09361
:100E4000E301B093E401BF91AF919F918F913F91E6
:100E50002F910F900FBE0F901F90189526E8230F2B
:100E60000296A11DB11DD2CFE5EFF1E013821282EF
:100E700088EE93E0A0E0B0E084839583A683B783F7
:100E800084E091E09183808385EC90E0958784876E
:100E900084EC90E09787868780EC90E0918B808B44
:100EA00081EC90E0938B828B82EC90E0958B848B2D
:100EB00086EC90E0978B868B118E128E138E148E9B
:100EC000E5EAF2E01382128286E191E09183808369
:100ED00082E084838FEF858383E0868384E0878349
:100EE00085E0808786E0818787E082871386148685
:100EF00015861686178681E00E947504A2E9B2E085
:100F000089E015968C9315978BE016968C9316971F
:100F1000E7EBF0E0E4911796EC931797E3EAF0E043
:100F2000E4911896EC93189740E85EE360E070E077
:100F30001D964D935D936D937C935097089578948F
:100F400084B5826084BD84B5816084BD85B58260CE
:100F500085BD85B5816085BD80916E00816080937F
:100F60006E001092810080918100826080938100E8
:100F700080918100816080938100809180008160F8
:100F8000809380008091B10084608093B100809153
:100F9000B00081608093B00080917A00846080937B
:100FA0007A0080917A00826080937A0080917A0042
:100FB000816080937A0080917A00806880937A00C3
:100FC0001092C100E0910502F091060282E0808358
:100FD000E0910102F09102021082E0910302F0918F
:100FE00004028FEC808310920D02E0910902F091CF
:100FF0000A0286E08083E0910702F0910802808176
:1010000080618083E0910702F0910802808188600E
:101010008083E0910702F0910802808180688083DC
:10102000E0910702F091080280818F7D808361E06A
:1010300088E00E94240282E00E9475046AE271E066
:1010400085EA92E00E9490060E9416056CE371E02A
:1010500085EA92E00E94900660E088E00E94D80154
:1010600062E0809197020E9424022FB7F894809149
:10107000F1019091F201A091F301B091F4012FBF21
:10108000805D9740A109B10980939B0290939C02D7
:10109000A0939D02B0939E0287E38093A40260ED2B
:1010A00077E080E090E00E948C02C0E0D0E00E94F7
:1010B000BE02882351F0809198028B3030F08D3041
:1010C00058F08551823008F440C0812C912C20ECDE
:1010D000A22E2FE7B22E1EC06091930270E090E026
:1010E00080E00E94740B2DEC3CEC4CEC5DE30E9424
:1010F000290C6B017C016091920270E090E080E02D
:101100000E94740B9B01AC01C701B6010E94600AEA
:101110004B015C018092E9019092EA01A092EB01FF
:10112000B092EC010E94BE02882341F080919802A7
:101130008C3009F414C1D8F48B3091F1C12CD12C2E
:1011400080ECE82E8FE7F82E55C0609192027091E6
:10115000930276276727762790E080E00E94720B43
:101160002DEC3CEC4CEC5DE30E94290CD1CF855179
:10117000823020F710919402612F70E0762F66275D
:1011800066277F7780919502682B90E080E00E942F
:10119000720B2DEC3CEC4CEC5DE30E94290CFBC087
:1011A0006091940270E090E080E00E94720B6B010D
:1011B0007C011091950217FF0AC0AC019B0160E011
:1011C00070E080E89FEB0E945F0A6B017C011F705A
:1011D000612F70E090E080E00E94740B2DEC3CECFD
:1011E0004CEC5DE30E94290CA70196010E94600A65
:1011F0006B017C01C092E501D092E601E092E7012B
:10120000F092E801A5019401C501B4010E94960C79
:10121000811109C0A7019601C701B6010E94960C71
:10122000882309F4C1C064E471E085EF91E00E9475
:101230002A0564E671E085EF91E00E942A058EE0C0
:101240000E9455029093EE018093ED0166EA71E0F1
:1012500085EF91E00E942A0564E671E085EF91E058
:101260000E942A054091ED015091EE01052E000CDF
:10127000660B770B77FF11C185EF91E00E94850522
:1012800064E671E085EF91E00E942A050E946D04FA
:1012900068EB71E085EA92E00E9490060E941605D4
:1012A0004091ED015091EE01052E000C660B770B7D
:1012B00077FFF9C085EA92E00E94850560ED77E04E
:1012C00080E090E00E948C028FE00E945502909393
:1012D000F0018093EF0169EC71E085EF91E00E94ED
:1012E00090064091EF015091F001052E000C660B25
:1012F000770B77FFDEC085EF91E00E94850564E6FD
:1013000071E085EF91E00E942A0568EE73E080E0CD
:1013100090E00E948C028091EF019091F0018D3B52
:10132000924044F08091ED019091EE0161E08D3B9F
:1013300092400CF460E088E00E94D80160ED77E014
:1013400080E090E00E948C02209709F4B0CE0E94C9
:101350003501882309F4ABCE0E940000A8CE10917D
:101360009402612F70E090E080E00E94720B6B01AC
:101370007C01609195026F7070E090E080E00E94C7
:10138000740B2DEC3CEC4CEC5DE30E94290CA701A6
:1013900096010E94600A6B017C0117FF2BCFF7FAC0
:1013A000F094F7F8F09426CF67E671E085EF91E0CE
:1013B0000E9490064091E9015091EA016091EB0191
:1013C0007091EC0122E085EF91E00E94AA0563E7AD
:1013D00071E085EF91E00E9490060E946D0465E740
:1013E00071E085EA92E00E9490060E941605409105
:1013F000E9015091EA016091EB017091EC0122E06A
:1014000085EA92E00E94AA0565E671E085EF91E029
:101410000E94900668EE73E080E090E00E948C02EB
:1014200062E871E085EF91E00E9490064091E5014D
:101430005091E6016091E7017091E80122E085EFAB
:1014400091E00E94AA0560E971E085EF91E00E94B9
:1014500090060E946D0463E971E085EA92E00E94C3
:1014600090060E9416054091E5015091E6016091B9
:10147000E7017091E80122E085EA92E00E94AA0566
:1014800065E671E085EF91E00E94900668EE73E0FA
:1014900080E090E00E948C02D2CE2AE085EF91E0BD
:1014A0000E943905EDCE2AE085EA92E00E943905D6
:1014B00005CF2AE085EF91E00E94390520CF5058F2
:1014C000BB27AA270E94770A0C94EA0B0E94DC0B28
:1014D00038F00E94E30B20F039F49F3F19F426F412
:1014E0000C94D90B0EF4E095E7FB0C94D30BE92F89
:1014F0000E94FB0B58F3BA1762077307840795071E
:1015000020F079F4A6F50C941D0C0EF4E0950B2E4A
:10151000BA2FA02D0B01B90190010C01CA01A00145
:101520001124FF27591B99F0593F50F4503E68F1A0
:101530001A16F040A22F232F342F4427585FF3CFE1
:10154000469537952795A795F0405395C9F77EF4B2
:101550001F16BA0B620B730B840BBAF09150A1F0FB
:10156000FF0FBB1F661F771F881FC2F70EC0BA0F81
:10157000621F731F841F48F4879577956795B79509
:10158000F7959E3F08F0B0CF9395880F08F0992704
:10159000EE0F9795879508950E94AF0B08F481E0B0
:1015A00008950E94E50A0C94EA0B0E94E30B58F0A0
:1015B0000E94DC0B40F029F45F3F29F00C94D30B20
:1015C00051110C941E0C0C94D90B0E94FB0B68F368
:1015D0009923B1F3552391F3951B550BBB27AA27EC
:1015E00062177307840738F09F5F5F4F220F331F26
:1015F000441FAA1FA9F335D00E2E3AF0E0E832D0EE
:1016000091505040E695001CCAF72BD0FE2F29D0F0
:10161000660F771F881FBB1F261737074807AB07C2
:10162000B0E809F0BB0B802DBF01FF2793585F4F37
:101630003AF09E3F510578F00C94D30B0C941E0C9D
:101640005F3FE4F3983ED4F3869577956795B79519
:10165000F7959F5FC9F7880F911D9695879597F924
:101660000895E1E0660F771F881FBB1F621773079D
:101670008407BA0720F0621B730B840BBA0BEE1FB2
:1016800088F7E09508950E94030C88F09F5798F022
:10169000B92F9927B751B0F0E1F0660F771F881F77
:1016A000991F1AF0BA95C9F714C0B13091F00E9491
:1016B0001D0CB1E008950C941D0C672F782F88271E
:1016C000B85F39F0B93FCCF3869577956795B395B8
:1016D000D9F73EF490958095709561957F4F8F4F27
:1016E0009F4F0895E89409C097FB3EF4909580952C
:1016F000709561957F4F8F4F9F4F9923A9F0F92FD8
:1017000096E9BB279395F695879577956795B79555
:10171000F111F8CFFAF4BB0F11F460FF1BC06F5F3B
:101720007F4F8F4F9F4F16C0882311F096E911C04D
:10173000772321F09EE8872F762F05C0662371F06E
:1017400096E8862F70E060E02AF09A95660F771F82
:10175000881FDAF7880F9695879597F90895990F5E
:101760000008550FAA0BE0E8FEEF16161706E8076B
:10177000F907C0F012161306E407F50798F0621B8C
:10178000730B840B950B39F40A2661F0232B242B61
:10179000252B21F408950A2609F4A140A6958FEF80
:1017A000811D811D089597F99F6780E870E060E0D2
:1017B00008959FEF80EC089500240A9416161706EA
:1017C00018060906089500240A9412161306140632
:1017D00005060895092E0394000C11F4882352F095
:1017E000BB0F40F4BF2B11F460FF04C06F5F7F4F4D
:1017F0008F4F9F4F089557FD9058440F551F59F034
:101800005F3F71F04795880F97FB991F61F09F3FED
:1018100079F087950895121613061406551FF2CF16
:101820004695F1DF08C0161617061806991FF1CF66
:1018300086957105610508940895E894BB2766278D
:101840007727CB0197F908950E94AF0B08F48FEF2B
:1018500008950E943C0C0C94EA0B0E94DC0B38F0BB
:101860000E94E30B20F0952311F00C94D30B0C9401
:10187000D90B11240C941E0C0E94FB0B70F3959F46
:10188000C1F3950F50E0551F629FF001729FBB2777
:10189000F00DB11D639FAA27F00DB11DAA1F649F13
:1018A0006627B00DA11D661F829F2227B00DA11DC6
:1018B000621F739FB00DA11D621F839FA00D611D4C
:1018C000221F749F3327A00D611D231F849F600D6D
:1018D000211D822F762F6A2F11249F5750409AF096
:1018E000F1F088234AF0EE0FFF1FBB1F661F771F22
:1018F000881F91505040A9F79E3F510580F00C94ED
:10190000D30B0C941E0C5F3FE4F3983ED4F3869502
:1019100077956795B795F795E7959F5FC1F7FE2B8C
:10192000880F911D9695879597F908950E94AF0BA2
:10193000880B990B0895A1E21A2EAA1BBB1BFD016F
:101940000DC0AA1FBB1FEE1FFF1FA217B307E4079E
:10195000F50720F0A21BB30BE40BF50B661F771FF6
:10196000881F991F1A9469F76095709580959095D6
:101970009B01AC01BD01CF010895EE0FFF1F059043
:0A198000F491E02D0994F894FFCFD4
:10198A00000000006B01CB00F800B8012901070133
:10199A001B01000000002405CB00CE03CD036E61BD
:1019AA006E00696E66006F766600536D6172742010
:1019BA0049727269676174696F6E200020535953C6
:1019CA0054454D004661696C656420746F207265E8
:1019DA0061642066726F6D204448542073656E738B
:1019EA006F7221000D0A002048756D696469747967
:1019FA003A2000250048756D696469747920253A92
:101A0A00200054656D70657261747572653A2000C4
:101A1A0043200054656D7065726174757265206447
:101A2A00656743656C004D6F697374757265204C08
:101A3A006576656C203A20004D6F6973747572651E
:101A4A00204C6576656C203A007261696E20736578
:101A5A006E736F722076616C7565203A3A200000C9
:00000001FF
